{
  "_format": "hh-sol-artifact-1",
  "contractName": "OrderManager",
  "sourceName": "contracts/contract.sol",
  "abi": [
    {
      "inputs": [],
      "stateMutability": "nonpayable",
      "type": "constructor"
    },
    {
      "anonymous": false,
      "inputs": [
        {
          "indexed": false,
          "internalType": "uint256",
          "name": "orderId",
          "type": "uint256"
        }
      ],
      "name": "OrderCancelled",
      "type": "event"
    },
    {
      "anonymous": false,
      "inputs": [
        {
          "indexed": false,
          "internalType": "uint256",
          "name": "orderId",
          "type": "uint256"
        }
      ],
      "name": "OrderDelivered",
      "type": "event"
    },
    {
      "anonymous": false,
      "inputs": [
        {
          "indexed": false,
          "internalType": "uint256",
          "name": "orderId",
          "type": "uint256"
        }
      ],
      "name": "OrderDisputed",
      "type": "event"
    },
    {
      "anonymous": false,
      "inputs": [
        {
          "indexed": false,
          "internalType": "uint256",
          "name": "orderId",
          "type": "uint256"
        },
        {
          "indexed": false,
          "internalType": "address",
          "name": "customer",
          "type": "address"
        },
        {
          "indexed": false,
          "internalType": "address",
          "name": "merchant",
          "type": "address"
        },
        {
          "indexed": false,
          "internalType": "uint256",
          "name": "itemId",
          "type": "uint256"
        },
        {
          "indexed": false,
          "internalType": "uint256",
          "name": "price",
          "type": "uint256"
        },
        {
          "indexed": false,
          "internalType": "uint256",
          "name": "timestamp",
          "type": "uint256"
        }
      ],
      "name": "OrderPlaced",
      "type": "event"
    },
    {
      "anonymous": false,
      "inputs": [
        {
          "indexed": false,
          "internalType": "uint256",
          "name": "orderId",
          "type": "uint256"
        }
      ],
      "name": "OrderShipped",
      "type": "event"
    },
    {
      "anonymous": false,
      "inputs": [
        {
          "indexed": false,
          "internalType": "uint256",
          "name": "orderId",
          "type": "uint256"
        },
        {
          "indexed": false,
          "internalType": "address",
          "name": "customer",
          "type": "address"
        },
        {
          "indexed": false,
          "internalType": "address",
          "name": "merchant",
          "type": "address"
        }
      ],
      "name": "RefundRequested",
      "type": "event"
    },
    {
      "inputs": [
        {
          "internalType": "uint256",
          "name": "_orderId",
          "type": "uint256"
        }
      ],
      "name": "confirmReceipt",
      "outputs": [],
      "stateMutability": "nonpayable",
      "type": "function"
    },
    {
      "inputs": [],
      "name": "contractAdmin",
      "outputs": [
        {
          "internalType": "address",
          "name": "",
          "type": "address"
        }
      ],
      "stateMutability": "view",
      "type": "function"
    },
    {
      "inputs": [
        {
          "internalType": "address",
          "name": "_merchant",
          "type": "address"
        },
        {
          "internalType": "uint256",
          "name": "_itemId",
          "type": "uint256"
        }
      ],
      "name": "createOrder",
      "outputs": [],
      "stateMutability": "payable",
      "type": "function"
    },
    {
      "inputs": [
        {
          "internalType": "uint256",
          "name": "_orderId",
          "type": "uint256"
        }
      ],
      "name": "dispatchOrder",
      "outputs": [],
      "stateMutability": "nonpayable",
      "type": "function"
    },
    {
      "inputs": [
        {
          "internalType": "uint256",
          "name": "_orderId",
          "type": "uint256"
        }
      ],
      "name": "fileDispute",
      "outputs": [],
      "stateMutability": "nonpayable",
      "type": "function"
    },
    {
      "inputs": [
        {
          "internalType": "uint256",
          "name": "",
          "type": "uint256"
        }
      ],
      "name": "orderRecords",
      "outputs": [
        {
          "internalType": "uint256",
          "name": "orderId",
          "type": "uint256"
        },
        {
          "internalType": "address",
          "name": "customer",
          "type": "address"
        },
        {
          "internalType": "address",
          "name": "merchant",
          "type": "address"
        },
        {
          "internalType": "uint256",
          "name": "itemId",
          "type": "uint256"
        },
        {
          "internalType": "uint256",
          "name": "price",
          "type": "uint256"
        },
        {
          "internalType": "uint256",
          "name": "timestamp",
          "type": "uint256"
        },
        {
          "internalType": "enum OrderManager.OrderStatus",
          "name": "status",
          "type": "uint8"
        }
      ],
      "stateMutability": "view",
      "type": "function"
    },
    {
      "inputs": [
        {
          "internalType": "uint256",
          "name": "_orderId",
          "type": "uint256"
        }
      ],
      "name": "revokeOrder",
      "outputs": [],
      "stateMutability": "nonpayable",
      "type": "function"
    },
    {
      "inputs": [
        {
          "internalType": "uint256",
          "name": "_orderId",
          "type": "uint256"
        },
        {
          "internalType": "bool",
          "name": "refundCustomer",
          "type": "bool"
        }
      ],
      "name": "settleDispute",
      "outputs": [],
      "stateMutability": "nonpayable",
      "type": "function"
    },
    {
      "inputs": [],
      "name": "totalOrders",
      "outputs": [
        {
          "internalType": "uint256",
          "name": "",
          "type": "uint256"
        }
      ],
      "stateMutability": "view",
      "type": "function"
    }
  ],
  "bytecode": "0x608060405234801561001057600080fd5b5033600260006101000a81548173ffffffffffffffffffffffffffffffffffffffff021916908373ffffffffffffffffffffffffffffffffffffffff1602179055506118f6806100616000396000f3fe6080604052600436106100865760003560e01c8063843cba1311610059578063843cba1314610126578063923054351461014f57806398939e4a14610178578063aee8fde0146101a1578063e0f29cec146101ca57610086565b80630f9a71d71461008b5780631d834409146100b45780636c16b545146100df57806377955245146100fb575b600080fd5b34801561009757600080fd5b506100b260048036038101906100ad9190611073565b61020d565b005b3480156100c057600080fd5b506100c9610444565b6040516100d691906110af565b60405180910390f35b6100f960048036038101906100f49190611128565b61044a565b005b34801561010757600080fd5b5061011061065d565b60405161011d9190611177565b60405180910390f35b34801561013257600080fd5b5061014d60048036038101906101489190611073565b610683565b005b34801561015b57600080fd5b50610176600480360381019061017191906111ca565b6108ba565b005b34801561018457600080fd5b5061019f600480360381019061019a9190611073565b610c5d565b005b3480156101ad57600080fd5b506101c860048036038101906101c39190611073565b610e03565b005b3480156101d657600080fd5b506101f160048036038101906101ec9190611073565b610fa9565b6040516102049796959493929190611281565b60405180910390f35b803373ffffffffffffffffffffffffffffffffffffffff1660008083815260200190815260200160002060010160009054906101000a900473ffffffffffffffffffffffffffffffffffffffff1673ffffffffffffffffffffffffffffffffffffffff16146102b1576040517f08c379a00000000000000000000000000000000000000000000000000000000081526004016102a890611399565b60405180910390fd5b600060058111156102c5576102c461120a565b5b60008084815260200190815260200160002060060160009054906101000a900460ff1660058111156102fa576102f961120a565b5b1461033a576040517f08c379a000000000000000000000000000000000000000000000000000000000815260040161033190611405565b60405180910390fd5b600360008084815260200190815260200160002060060160006101000a81548160ff021916908360058111156103735761037261120a565b5b021790555060008083815260200190815260200160002060010160009054906101000a900473ffffffffffffffffffffffffffffffffffffffff1673ffffffffffffffffffffffffffffffffffffffff166108fc600080858152602001908152602001600020600401549081150290604051600060405180830381858888f19350505050158015610408573d6000803e3d6000fd5b507f61b9399f2f0f32ca39ce8d7be32caed5ec22fe07a6daba3a467ed479ec6065828260405161043891906110af565b60405180910390a15050565b60015481565b6000341161048d576040517f08c379a000000000000000000000000000000000000000000000000000000000815260040161048490611471565b60405180910390fd5b600160008154809291906104a0906114c0565b91905055506040518060e0016040528060015481526020013373ffffffffffffffffffffffffffffffffffffffff1681526020018373ffffffffffffffffffffffffffffffffffffffff168152602001828152602001348152602001428152602001600060058111156105165761051561120a565b5b81525060008060015481526020019081526020016000206000820151816000015560208201518160010160006101000a81548173ffffffffffffffffffffffffffffffffffffffff021916908373ffffffffffffffffffffffffffffffffffffffff16021790555060408201518160020160006101000a81548173ffffffffffffffffffffffffffffffffffffffff021916908373ffffffffffffffffffffffffffffffffffffffff160217905550606082015181600301556080820151816004015560a0820151816005015560c08201518160060160006101000a81548160ff0219169083600581111561060e5761060d61120a565b5b02179055509050507fdad226b9adea7d7f4524bb4137ae0d165b8724c3a3ab0f2b892b5e6c58df562c600154338484344260405161065196959493929190611508565b60405180910390a15050565b600260009054906101000a900473ffffffffffffffffffffffffffffffffffffffff1681565b803373ffffffffffffffffffffffffffffffffffffffff1660008083815260200190815260200160002060010160009054906101000a900473ffffffffffffffffffffffffffffffffffffffff1673ffffffffffffffffffffffffffffffffffffffff1614610727576040517f08c379a000000000000000000000000000000000000000000000000000000000815260040161071e90611399565b60405180910390fd5b6001600581111561073b5761073a61120a565b5b60008084815260200190815260200160002060060160009054906101000a900460ff1660058111156107705761076f61120a565b5b146107b0576040517f08c379a00000000000000000000000000000000000000000000000000000000081526004016107a7906115b5565b60405180910390fd5b600260008084815260200190815260200160002060060160006101000a81548160ff021916908360058111156107e9576107e861120a565b5b021790555060008083815260200190815260200160002060020160009054906101000a900473ffffffffffffffffffffffffffffffffffffffff1673ffffffffffffffffffffffffffffffffffffffff166108fc600080858152602001908152602001600020600401549081150290604051600060405180830381858888f1935050505015801561087e573d6000803e3d6000fd5b507fe21fe02c1589242b30be2057f54fd54b7ddc463695d19ffdb54f9ebb0584f24a826040516108ae91906110af565b60405180910390a15050565b600260009054906101000a900473ffffffffffffffffffffffffffffffffffffffff1673ffffffffffffffffffffffffffffffffffffffff163373ffffffffffffffffffffffffffffffffffffffff161461094a576040517f08c379a00000000000000000000000000000000000000000000000000000000081526004016109419061166d565b60405180910390fd5b6004600581111561095e5761095d61120a565b5b60008084815260200190815260200160002060060160009054906101000a900460ff1660058111156109935761099261120a565b5b146109d3576040517f08c379a00000000000000000000000000000000000000000000000000000000081526004016109ca906116d9565b60405180910390fd5b8015610b5257600560008084815260200190815260200160002060060160006101000a81548160ff02191690836005811115610a1257610a1161120a565b5b021790555060008083815260200190815260200160002060010160009054906101000a900473ffffffffffffffffffffffffffffffffffffffff1673ffffffffffffffffffffffffffffffffffffffff166108fc600080858152602001908152602001600020600401549081150290604051600060405180830381858888f19350505050158015610aa7573d6000803e3d6000fd5b507f945d291c0c9237752b651399b41a64bc691b50ef8f46687f5772a0a31e562cfc8260008085815260200190815260200160002060010160009054906101000a900473ffffffffffffffffffffffffffffffffffffffff1660008086815260200190815260200160002060020160009054906101000a900473ffffffffffffffffffffffffffffffffffffffff16604051610b45939291906116f9565b60405180910390a1610c59565b600260008084815260200190815260200160002060060160006101000a81548160ff02191690836005811115610b8b57610b8a61120a565b5b021790555060008083815260200190815260200160002060020160009054906101000a900473ffffffffffffffffffffffffffffffffffffffff1673ffffffffffffffffffffffffffffffffffffffff166108fc600080858152602001908152602001600020600401549081150290604051600060405180830381858888f19350505050158015610c20573d6000803e3d6000fd5b507fe21fe02c1589242b30be2057f54fd54b7ddc463695d19ffdb54f9ebb0584f24a82604051610c5091906110af565b60405180910390a15b5050565b803373ffffffffffffffffffffffffffffffffffffffff1660008083815260200190815260200160002060020160009054906101000a900473ffffffffffffffffffffffffffffffffffffffff1673ffffffffffffffffffffffffffffffffffffffff1614610d01576040517f08c379a0000000000000000000000000000000000000000000000000000000008152600401610cf8906117c8565b60405180910390fd5b60006005811115610d1557610d1461120a565b5b60008084815260200190815260200160002060060160009054906101000a900460ff166005811115610d4a57610d4961120a565b5b14610d8a576040517f08c379a0000000000000000000000000000000000000000000000000000000008152600401610d8190611834565b60405180910390fd5b600160008084815260200190815260200160002060060160006101000a81548160ff02191690836005811115610dc357610dc261120a565b5b02179055507fe3ce5f36666aec295b2ed1a858caf4782066e5e8c1a5a5da7ba6551b14fcfdcb82604051610df791906110af565b60405180910390a15050565b803373ffffffffffffffffffffffffffffffffffffffff1660008083815260200190815260200160002060010160009054906101000a900473ffffffffffffffffffffffffffffffffffffffff1673ffffffffffffffffffffffffffffffffffffffff1614610ea7576040517f08c379a0000000000000000000000000000000000000000000000000000000008152600401610e9e90611399565b60405180910390fd5b60016005811115610ebb57610eba61120a565b5b60008084815260200190815260200160002060060160009054906101000a900460ff166005811115610ef057610eef61120a565b5b14610f30576040517f08c379a0000000000000000000000000000000000000000000000000000000008152600401610f27906118a0565b60405180910390fd5b600460008084815260200190815260200160002060060160006101000a81548160ff02191690836005811115610f6957610f6861120a565b5b02179055507fcc71d13ec179647ba6991025098e2d3f0dc223962c4052028bfb067e394e22b082604051610f9d91906110af565b60405180910390a15050565b60006020528060005260406000206000915090508060000154908060010160009054906101000a900473ffffffffffffffffffffffffffffffffffffffff16908060020160009054906101000a900473ffffffffffffffffffffffffffffffffffffffff16908060030154908060040154908060050154908060060160009054906101000a900460ff16905087565b600080fd5b6000819050919050565b6110508161103d565b811461105b57600080fd5b50565b60008135905061106d81611047565b92915050565b60006020828403121561108957611088611038565b5b60006110978482850161105e565b91505092915050565b6110a98161103d565b82525050565b60006020820190506110c460008301846110a0565b92915050565b600073ffffffffffffffffffffffffffffffffffffffff82169050919050565b60006110f5826110ca565b9050919050565b611105816110ea565b811461111057600080fd5b50565b600081359050611122816110fc565b92915050565b6000806040838503121561113f5761113e611038565b5b600061114d85828601611113565b925050602061115e8582860161105e565b9150509250929050565b611171816110ea565b82525050565b600060208201905061118c6000830184611168565b92915050565b60008115159050919050565b6111a781611192565b81146111b257600080fd5b50565b6000813590506111c48161119e565b92915050565b600080604083850312156111e1576111e0611038565b5b60006111ef8582860161105e565b9250506020611200858286016111b5565b9150509250929050565b7f4e487b7100000000000000000000000000000000000000000000000000000000600052602160045260246000fd5b6006811061124a5761124961120a565b5b50565b600081905061125b82611239565b919050565b600061126b8261124d565b9050919050565b61127b81611260565b82525050565b600060e082019050611296600083018a6110a0565b6112a36020830189611168565b6112b06040830188611168565b6112bd60608301876110a0565b6112ca60808301866110a0565b6112d760a08301856110a0565b6112e460c0830184611272565b98975050505050505050565b600082825260208201905092915050565b7f596f7520617265206e6f742074686520637573746f6d657221204f6e6c79206160008201527f20637573746f6d6572206973207065726d697474656420746f20706572666f7260208201527f6d207468697320616374696f6e00000000000000000000000000000000000000604082015250565b6000611383604d836112f0565b915061138e82611301565b606082019050919050565b600060208201905081810360008301526113b281611376565b9050919050565b7f4f726465722063616e6e6f742062652063616e63656c6c656400000000000000600082015250565b60006113ef6019836112f0565b91506113fa826113b9565b602082019050919050565b6000602082019050818103600083015261141e816113e2565b9050919050565b7f5061796d656e7420726571756972656400000000000000000000000000000000600082015250565b600061145b6010836112f0565b915061146682611425565b602082019050919050565b6000602082019050818103600083015261148a8161144e565b9050919050565b7f4e487b7100000000000000000000000000000000000000000000000000000000600052601160045260246000fd5b60006114cb8261103d565b91507fffffffffffffffffffffffffffffffffffffffffffffffffffffffffffffffff82036114fd576114fc611491565b5b600182019050919050565b600060c08201905061151d60008301896110a0565b61152a6020830188611168565b6115376040830187611168565b61154460608301866110a0565b61155160808301856110a0565b61155e60a08301846110a0565b979650505050505050565b7f4f72646572206e6f742073686970706564207965740000000000000000000000600082015250565b600061159f6015836112f0565b91506115aa82611569565b602082019050919050565b600060208201905081810360008301526115ce81611592565b9050919050565b7f596f7520617265206e6f74207468652061646d696e21204f6e6c7920616e206160008201527f646d696e206973207065726d697474656420746f20706572666f726d2074686960208201527f7320616374696f6e000000000000000000000000000000000000000000000000604082015250565b60006116576048836112f0565b9150611662826115d5565b606082019050919050565b600060208201905081810360008301526116868161164a565b9050919050565b7f4e6f206469737075746520746f207265736f6c76650000000000000000000000600082015250565b60006116c36015836112f0565b91506116ce8261168d565b602082019050919050565b600060208201905081810360008301526116f2816116b6565b9050919050565b600060608201905061170e60008301866110a0565b61171b6020830185611168565b6117286040830184611168565b949350505050565b7f596f7520617265206e6f7420746865206d65726368616e7421204f6e6c79206160008201527f206d65726368616e74206973207065726d697474656420746f20706572666f7260208201527f6d207468697320616374696f6e00000000000000000000000000000000000000604082015250565b60006117b2604d836112f0565b91506117bd82611730565b606082019050919050565b600060208201905081810360008301526117e1816117a5565b9050919050565b7f4f72646572206e6f7420696e20636f7272656374207374617465000000000000600082015250565b600061181e601a836112f0565b9150611829826117e8565b602082019050919050565b6000602082019050818103600083015261184d81611811565b9050919050565b7f4469737075746573206f6e6c7920666f722073686970706564206f7264657273600082015250565b600061188a6020836112f0565b915061189582611854565b602082019050919050565b600060208201905081810360008301526118b98161187d565b905091905056fea2646970667358221220225ac460a2a70151e53da923a08f2857d306873ce55c04f8b3783c07662a4ecf64736f6c63430008140033",
  "linkReferences": {},
  "deployedLinkReferences": {}
}